{
  "_format": "hh-sol-artifact-1",
  "contractName": "CreatorFactory",
  "sourceName": "contracts/CreatorFactory.sol",
  "abi": [
    {
      "inputs": [
        {
          "internalType": "address",
          "name": "_backendSigner",
          "type": "address"
        }
      ],
      "stateMutability": "nonpayable",
      "type": "constructor"
    },
    {
      "anonymous": false,
      "inputs": [
        {
          "indexed": true,
          "internalType": "address",
          "name": "creator",
          "type": "address"
        },
        {
          "indexed": true,
          "internalType": "address",
          "name": "tokenAddress",
          "type": "address"
        },
        {
          "indexed": false,
          "internalType": "string",
          "name": "name",
          "type": "string"
        },
        {
          "indexed": false,
          "internalType": "string",
          "name": "symbol",
          "type": "string"
        }
      ],
      "name": "tokenDeployed",
      "type": "event"
    },
    {
      "inputs": [],
      "name": "MAX_TOKENS_PER_USER",
      "outputs": [
        {
          "internalType": "uint256",
          "name": "",
          "type": "uint256"
        }
      ],
      "stateMutability": "view",
      "type": "function"
    },
    {
      "inputs": [],
      "name": "allTokens",
      "outputs": [
        {
          "internalType": "address[]",
          "name": "",
          "type": "address[]"
        }
      ],
      "stateMutability": "view",
      "type": "function"
    },
    {
      "inputs": [],
      "name": "backendSigner",
      "outputs": [
        {
          "internalType": "address",
          "name": "",
          "type": "address"
        }
      ],
      "stateMutability": "view",
      "type": "function"
    },
    {
      "inputs": [
        {
          "internalType": "string",
          "name": "_name",
          "type": "string"
        },
        {
          "internalType": "string",
          "name": "_symbol",
          "type": "string"
        }
      ],
      "name": "createToken",
      "outputs": [],
      "stateMutability": "nonpayable",
      "type": "function"
    },
    {
      "inputs": [
        {
          "internalType": "uint256",
          "name": "",
          "type": "uint256"
        }
      ],
      "name": "creatorTokens",
      "outputs": [
        {
          "internalType": "address",
          "name": "",
          "type": "address"
        }
      ],
      "stateMutability": "view",
      "type": "function"
    },
    {
      "inputs": [
        {
          "internalType": "address",
          "name": "creator",
          "type": "address"
        }
      ],
      "name": "getTokensByCreator",
      "outputs": [
        {
          "components": [
            {
              "internalType": "address",
              "name": "tokenAddress",
              "type": "address"
            },
            {
              "internalType": "string",
              "name": "name",
              "type": "string"
            },
            {
              "internalType": "string",
              "name": "symbol",
              "type": "string"
            }
          ],
          "internalType": "struct CreatorFactory.TokenData[]",
          "name": "",
          "type": "tuple[]"
        }
      ],
      "stateMutability": "view",
      "type": "function"
    },
    {
      "inputs": [
        {
          "internalType": "address",
          "name": "",
          "type": "address"
        }
      ],
      "name": "tokenMetadata",
      "outputs": [
        {
          "internalType": "address",
          "name": "tokenAddress",
          "type": "address"
        },
        {
          "internalType": "string",
          "name": "name",
          "type": "string"
        },
        {
          "internalType": "string",
          "name": "symbol",
          "type": "string"
        }
      ],
      "stateMutability": "view",
      "type": "function"
    }
  ],
  "bytecode": "0x608060405234801561001057600080fd5b50604051613eb2380380613eb2833981810160405281019061003291906100dc565b80600160006101000a81548173ffffffffffffffffffffffffffffffffffffffff021916908373ffffffffffffffffffffffffffffffffffffffff16021790555050610109565b600080fd5b600073ffffffffffffffffffffffffffffffffffffffff82169050919050565b60006100a98261007e565b9050919050565b6100b98161009e565b81146100c457600080fd5b50565b6000815190506100d6816100b0565b92915050565b6000602082840312156100f2576100f1610079565b5b6000610100848285016100c7565b91505092915050565b613d9a806101186000396000f3fe608060405234801561001057600080fd5b506004361061007d5760003560e01c80636fecdf241161005b5780636fecdf24146100da5780636ff97f1d1461010c578063ce901d8a1461012a578063d5c712751461015a5761007d565b80632f2f2d561461008257806365d65e861461009e57806369c5dfd8146100bc575b600080fd5b61009c60048036038101906100979190610dcb565b61018a565b005b6100a6610698565b6040516100b39190610e84565b60405180910390f35b6100c46106be565b6040516100d19190610eb8565b60405180910390f35b6100f460048036038101906100ef9190610eff565b6106c3565b60405161010393929190610fab565b60405180910390f35b61011461081d565b60405161012191906110ae565b60405180910390f35b610144600480360381019061013f91906110fc565b6108ab565b6040516101519190610e84565b60405180910390f35b610174600480360381019061016f9190610eff565b6108ea565b604051610181919061128c565b60405180910390f35b60008251116101ce576040517f08c379a00000000000000000000000000000000000000000000000000000000081526004016101c5906112fa565b60405180910390fd5b6000815111610212576040517f08c379a000000000000000000000000000000000000000000000000000000000815260040161020990611366565b60405180910390fd5b6001600260003373ffffffffffffffffffffffffffffffffffffffff1673ffffffffffffffffffffffffffffffffffffffff1681526020019081526020016000208054905010610297576040517f08c379a000000000000000000000000000000000000000000000000000000000815260040161028e906113d2565b60405180910390fd5b6004826040516102a7919061142e565b908152602001604051809103902060009054906101000a900460ff1615610303576040517f08c379a00000000000000000000000000000000000000000000000000000000081526004016102fa90611491565b60405180910390fd5b600581604051610313919061142e565b908152602001604051809103902060009054906101000a900460ff161561036f576040517f08c379a0000000000000000000000000000000000000000000000000000000008152600401610366906114fd565b60405180910390fd5b600033600160009054906101000a900473ffffffffffffffffffffffffffffffffffffffff1684846040516103a390610c2d565b6103b0949392919061151d565b604051809103906000f0801580156103cc573d6000803e3d6000fd5b509050600081905060016004856040516103e6919061142e565b908152602001604051809103902060006101000a81548160ff021916908315150217905550600160058460405161041d919061142e565b908152602001604051809103902060006101000a81548160ff0219169083151502179055506000819080600181540180825580915050600190039060005260206000200160009091909190916101000a81548173ffffffffffffffffffffffffffffffffffffffff021916908373ffffffffffffffffffffffffffffffffffffffff160217905550600260003373ffffffffffffffffffffffffffffffffffffffff1673ffffffffffffffffffffffffffffffffffffffff168152602001908152602001600020819080600181540180825580915050600190039060005260206000200160009091909190916101000a81548173ffffffffffffffffffffffffffffffffffffffff021916908373ffffffffffffffffffffffffffffffffffffffff16021790555060405180606001604052808273ffffffffffffffffffffffffffffffffffffffff16815260200185815260200184815250600360008373ffffffffffffffffffffffffffffffffffffffff1673ffffffffffffffffffffffffffffffffffffffff16815260200190815260200160002060008201518160000160006101000a81548173ffffffffffffffffffffffffffffffffffffffff021916908373ffffffffffffffffffffffffffffffffffffffff1602179055506020820151816001019081610611919061177c565b506040820151816002019081610627919061177c565b509050508073ffffffffffffffffffffffffffffffffffffffff163373ffffffffffffffffffffffffffffffffffffffff167f016fedc894935416c32f1226c2d25b962b965defb82a3140075d61d2fd295f96868660405161068a92919061184e565b60405180910390a350505050565b600160009054906101000a900473ffffffffffffffffffffffffffffffffffffffff1681565b600181565b60036020528060005260406000206000915090508060000160009054906101000a900473ffffffffffffffffffffffffffffffffffffffff169080600101805461070c9061159f565b80601f01602080910402602001604051908101604052809291908181526020018280546107389061159f565b80156107855780601f1061075a57610100808354040283529160200191610785565b820191906000526020600020905b81548152906001019060200180831161076857829003601f168201915b50505050509080600201805461079a9061159f565b80601f01602080910402602001604051908101604052809291908181526020018280546107c69061159f565b80156108135780601f106107e857610100808354040283529160200191610813565b820191906000526020600020905b8154815290600101906020018083116107f657829003601f168201915b5050505050905083565b606060008054806020026020016040519081016040528092919081815260200182805480156108a157602002820191906000526020600020905b8160009054906101000a900473ffffffffffffffffffffffffffffffffffffffff1673ffffffffffffffffffffffffffffffffffffffff1681526020019060010190808311610857575b5050505050905090565b600081815481106108bb57600080fd5b906000526020600020016000915054906101000a900473ffffffffffffffffffffffffffffffffffffffff1681565b60606000600260008473ffffffffffffffffffffffffffffffffffffffff1673ffffffffffffffffffffffffffffffffffffffff1681526020019081526020016000208054806020026020016040519081016040528092919081815260200182805480156109ad57602002820191906000526020600020905b8160009054906101000a900473ffffffffffffffffffffffffffffffffffffffff1673ffffffffffffffffffffffffffffffffffffffff1681526020019060010190808311610963575b505050505090506000815167ffffffffffffffff8111156109d1576109d0610ca0565b5b604051908082528060200260200182016040528015610a0a57816020015b6109f7610c3a565b8152602001906001900390816109ef5790505b50905060005b8251811015610c225760036000848381518110610a3057610a2f611885565b5b602002602001015173ffffffffffffffffffffffffffffffffffffffff1673ffffffffffffffffffffffffffffffffffffffff1681526020019081526020016000206040518060600160405290816000820160009054906101000a900473ffffffffffffffffffffffffffffffffffffffff1673ffffffffffffffffffffffffffffffffffffffff1673ffffffffffffffffffffffffffffffffffffffff168152602001600182018054610ae39061159f565b80601f0160208091040260200160405190810160405280929190818152602001828054610b0f9061159f565b8015610b5c5780601f10610b3157610100808354040283529160200191610b5c565b820191906000526020600020905b815481529060010190602001808311610b3f57829003601f168201915b50505050508152602001600282018054610b759061159f565b80601f0160208091040260200160405190810160405280929190818152602001828054610ba19061159f565b8015610bee5780601f10610bc357610100808354040283529160200191610bee565b820191906000526020600020905b815481529060010190602001808311610bd157829003601f168201915b505050505081525050828281518110610c0a57610c09611885565b5b60200260200101819052508080600101915050610a10565b508092505050919050565b6124b0806118b583390190565b6040518060600160405280600073ffffffffffffffffffffffffffffffffffffffff16815260200160608152602001606081525090565b6000604051905090565b600080fd5b600080fd5b600080fd5b600080fd5b6000601f19601f8301169050919050565b7f4e487b7100000000000000000000000000000000000000000000000000000000600052604160045260246000fd5b610cd882610c8f565b810181811067ffffffffffffffff82111715610cf757610cf6610ca0565b5b80604052505050565b6000610d0a610c71565b9050610d168282610ccf565b919050565b600067ffffffffffffffff821115610d3657610d35610ca0565b5b610d3f82610c8f565b9050602081019050919050565b82818337600083830152505050565b6000610d6e610d6984610d1b565b610d00565b905082815260208101848484011115610d8a57610d89610c8a565b5b610d95848285610d4c565b509392505050565b600082601f830112610db257610db1610c85565b5b8135610dc2848260208601610d5b565b91505092915050565b60008060408385031215610de257610de1610c7b565b5b600083013567ffffffffffffffff811115610e0057610dff610c80565b5b610e0c85828601610d9d565b925050602083013567ffffffffffffffff811115610e2d57610e2c610c80565b5b610e3985828601610d9d565b9150509250929050565b600073ffffffffffffffffffffffffffffffffffffffff82169050919050565b6000610e6e82610e43565b9050919050565b610e7e81610e63565b82525050565b6000602082019050610e996000830184610e75565b92915050565b6000819050919050565b610eb281610e9f565b82525050565b6000602082019050610ecd6000830184610ea9565b92915050565b610edc81610e63565b8114610ee757600080fd5b50565b600081359050610ef981610ed3565b92915050565b600060208284031215610f1557610f14610c7b565b5b6000610f2384828501610eea565b91505092915050565b600081519050919050565b600082825260208201905092915050565b60005b83811015610f66578082015181840152602081019050610f4b565b60008484015250505050565b6000610f7d82610f2c565b610f878185610f37565b9350610f97818560208601610f48565b610fa081610c8f565b840191505092915050565b6000606082019050610fc06000830186610e75565b8181036020830152610fd28185610f72565b90508181036040830152610fe68184610f72565b9050949350505050565b600081519050919050565b600082825260208201905092915050565b6000819050602082019050919050565b61102581610e63565b82525050565b6000611037838361101c565b60208301905092915050565b6000602082019050919050565b600061105b82610ff0565b6110658185610ffb565b93506110708361100c565b8060005b838110156110a1578151611088888261102b565b975061109383611043565b925050600181019050611074565b5085935050505092915050565b600060208201905081810360008301526110c88184611050565b905092915050565b6110d981610e9f565b81146110e457600080fd5b50565b6000813590506110f6816110d0565b92915050565b60006020828403121561111257611111610c7b565b5b6000611120848285016110e7565b91505092915050565b600081519050919050565b600082825260208201905092915050565b6000819050602082019050919050565b600082825260208201905092915050565b600061117182610f2c565b61117b8185611155565b935061118b818560208601610f48565b61119481610c8f565b840191505092915050565b60006060830160008301516111b7600086018261101c565b50602083015184820360208601526111cf8282611166565b915050604083015184820360408601526111e98282611166565b9150508091505092915050565b6000611202838361119f565b905092915050565b6000602082019050919050565b600061122282611129565b61122c8185611134565b93508360208202850161123e85611145565b8060005b8581101561127a578484038952815161125b85826111f6565b94506112668361120a565b925060208a01995050600181019050611242565b50829750879550505050505092915050565b600060208201905081810360008301526112a68184611217565b905092915050565b7f546f6b656e206e616d652063616e6e6f7420626520656d707479000000000000600082015250565b60006112e4601a83610f37565b91506112ef826112ae565b602082019050919050565b60006020820190508181036000830152611313816112d7565b9050919050565b7f546f6b656e2073796d626f6c2063616e6e6f7420626520656d70747900000000600082015250565b6000611350601c83610f37565b915061135b8261131a565b602082019050919050565b6000602082019050818103600083015261137f81611343565b9050919050565b7f546f6b656e206372656174696f6e206c696d6974207265616368656400000000600082015250565b60006113bc601c83610f37565b91506113c782611386565b602082019050919050565b600060208201905081810360008301526113eb816113af565b9050919050565b600081905092915050565b600061140882610f2c565b61141281856113f2565b9350611422818560208601610f48565b80840191505092915050565b600061143a82846113fd565b915081905092915050565b7f546f6b656e206e616d6520616c72656164792075736564000000000000000000600082015250565b600061147b601783610f37565b915061148682611445565b602082019050919050565b600060208201905081810360008301526114aa8161146e565b9050919050565b7f546f6b656e2073796d626f6c20616c7265616479207573656400000000000000600082015250565b60006114e7601983610f37565b91506114f2826114b1565b602082019050919050565b60006020820190508181036000830152611516816114da565b9050919050565b60006080820190506115326000830187610e75565b61153f6020830186610e75565b81810360408301526115518185610f72565b905081810360608301526115658184610f72565b905095945050505050565b7f4e487b7100000000000000000000000000000000000000000000000000000000600052602260045260246000fd5b600060028204905060018216806115b757607f821691505b6020821081036115ca576115c9611570565b5b50919050565b60008190508160005260206000209050919050565b60006020601f8301049050919050565b600082821b905092915050565b6000600883026116327fffffffffffffffffffffffffffffffffffffffffffffffffffffffffffffffff826115f5565b61163c86836115f5565b95508019841693508086168417925050509392505050565b6000819050919050565b600061167961167461166f84610e9f565b611654565b610e9f565b9050919050565b6000819050919050565b6116938361165e565b6116a761169f82611680565b848454611602565b825550505050565b600090565b6116bc6116af565b6116c781848461168a565b505050565b5b818110156116eb576116e06000826116b4565b6001810190506116cd565b5050565b601f82111561173057611701816115d0565b61170a846115e5565b81016020851015611719578190505b61172d611725856115e5565b8301826116cc565b50505b505050565b600082821c905092915050565b600061175360001984600802611735565b1980831691505092915050565b600061176c8383611742565b9150826002028217905092915050565b61178582610f2c565b67ffffffffffffffff81111561179e5761179d610ca0565b5b6117a8825461159f565b6117b38282856116ef565b600060209050601f8311600181146117e657600084156117d4578287015190505b6117de8582611760565b865550611846565b601f1984166117f4866115d0565b60005b8281101561181c578489015182556001820191506020850194506020810190506117f7565b868310156118395784890151611835601f891682611742565b8355505b6001600288020188555050505b505050505050565b600060408201905081810360008301526118688185610f72565b9050818103602083015261187c8184610f72565b90509392505050565b7f4e487b7100000000000000000000000000000000000000000000000000000000600052603260045260246000fdfe608060405234801561001057600080fd5b506040516124b03803806124b0833981810160405281019061003291906103bc565b8382828160039081610044919061067c565b508060049081610054919061067c565b505050600073ffffffffffffffffffffffffffffffffffffffff168173ffffffffffffffffffffffffffffffffffffffff16036100c95760006040517f1e4fbdf70000000000000000000000000000000000000000000000000000000081526004016100c0919061075d565b60405180910390fd5b6100d88161012360201b60201c565b5082600660006101000a81548173ffffffffffffffffffffffffffffffffffffffff021916908373ffffffffffffffffffffffffffffffffffffffff16021790555050505050610778565b6000600560009054906101000a900473ffffffffffffffffffffffffffffffffffffffff16905081600560006101000a81548173ffffffffffffffffffffffffffffffffffffffff021916908373ffffffffffffffffffffffffffffffffffffffff1602179055508173ffffffffffffffffffffffffffffffffffffffff168173ffffffffffffffffffffffffffffffffffffffff167f8be0079c531659141344cd1fd0a4f28419497f9722a3daafe3b4186f6b6457e060405160405180910390a35050565b6000604051905090565b600080fd5b600080fd5b600073ffffffffffffffffffffffffffffffffffffffff82169050919050565b6000610228826101fd565b9050919050565b6102388161021d565b811461024357600080fd5b50565b6000815190506102558161022f565b92915050565b600080fd5b600080fd5b6000601f19601f8301169050919050565b7f4e487b7100000000000000000000000000000000000000000000000000000000600052604160045260246000fd5b6102ae82610265565b810181811067ffffffffffffffff821117156102cd576102cc610276565b5b80604052505050565b60006102e06101e9565b90506102ec82826102a5565b919050565b600067ffffffffffffffff82111561030c5761030b610276565b5b61031582610265565b9050602081019050919050565b60005b83811015610340578082015181840152602081019050610325565b60008484015250505050565b600061035f61035a846102f1565b6102d6565b90508281526020810184848401111561037b5761037a610260565b5b610386848285610322565b509392505050565b600082601f8301126103a3576103a261025b565b5b81516103b384826020860161034c565b91505092915050565b600080600080608085870312156103d6576103d56101f3565b5b60006103e487828801610246565b94505060206103f587828801610246565b935050604085015167ffffffffffffffff811115610416576104156101f8565b5b6104228782880161038e565b925050606085015167ffffffffffffffff811115610443576104426101f8565b5b61044f8782880161038e565b91505092959194509250565b600081519050919050565b7f4e487b7100000000000000000000000000000000000000000000000000000000600052602260045260246000fd5b600060028204905060018216806104ad57607f821691505b6020821081036104c0576104bf610466565b5b50919050565b60008190508160005260206000209050919050565b60006020601f8301049050919050565b600082821b905092915050565b6000600883026105287fffffffffffffffffffffffffffffffffffffffffffffffffffffffffffffffff826104eb565b61053286836104eb565b95508019841693508086168417925050509392505050565b6000819050919050565b6000819050919050565b600061057961057461056f8461054a565b610554565b61054a565b9050919050565b6000819050919050565b6105938361055e565b6105a761059f82610580565b8484546104f8565b825550505050565b600090565b6105bc6105af565b6105c781848461058a565b505050565b5b818110156105eb576105e06000826105b4565b6001810190506105cd565b5050565b601f82111561063057610601816104c6565b61060a846104db565b81016020851015610619578190505b61062d610625856104db565b8301826105cc565b50505b505050565b600082821c905092915050565b600061065360001984600802610635565b1980831691505092915050565b600061066c8383610642565b9150826002028217905092915050565b6106858261045b565b67ffffffffffffffff81111561069e5761069d610276565b5b6106a88254610495565b6106b38282856105ef565b600060209050601f8311600181146106e657600084156106d4578287015190505b6106de8582610660565b865550610746565b601f1984166106f4866104c6565b60005b8281101561071c578489015182556001820191506020850194506020810190506106f7565b868310156107395784890151610735601f891682610642565b8355505b6001600288020188555050505b505050505050565b6107578161021d565b82525050565b6000602082019050610772600083018461074e565b92915050565b611d29806107876000396000f3fe6080604052600436106100dd5760003560e01c806370a082311161007f57806395d89b411161005957806395d89b41146102a3578063a9059cbb146102ce578063dd62ed3e1461030b578063f2fde38b14610348576100dd565b806370a0823114610224578063715018a6146102615780638da5cb5b14610278576100dd565b806323b872dd116100bb57806323b872dd14610175578063313ce567146101b257806352200dfc146101dd57806365d65e86146101f9576100dd565b806306fdde03146100e2578063095ea7b31461010d57806318160ddd1461014a575b600080fd5b3480156100ee57600080fd5b506100f7610371565b6040516101049190611417565b60405180910390f35b34801561011957600080fd5b50610134600480360381019061012f91906114d7565b610403565b6040516101419190611532565b60405180910390f35b34801561015657600080fd5b5061015f610426565b60405161016c919061155c565b60405180910390f35b34801561018157600080fd5b5061019c60048036038101906101979190611577565b610430565b6040516101a99190611532565b60405180910390f35b3480156101be57600080fd5b506101c761045f565b6040516101d491906115e6565b60405180910390f35b6101f760048036038101906101f29190611666565b610468565b005b34801561020557600080fd5b5061020e610695565b60405161021b91906116fd565b60405180910390f35b34801561023057600080fd5b5061024b60048036038101906102469190611718565b6106bb565b604051610258919061155c565b60405180910390f35b34801561026d57600080fd5b50610276610703565b005b34801561028457600080fd5b5061028d610717565b60405161029a91906116fd565b60405180910390f35b3480156102af57600080fd5b506102b8610741565b6040516102c59190611417565b60405180910390f35b3480156102da57600080fd5b506102f560048036038101906102f091906114d7565b6107d3565b6040516103029190611532565b60405180910390f35b34801561031757600080fd5b50610332600480360381019061032d9190611745565b6107f6565b60405161033f919061155c565b60405180910390f35b34801561035457600080fd5b5061036f600480360381019061036a9190611718565b61087d565b005b606060038054610380906117b4565b80601f01602080910402602001604051908101604052809291908181526020018280546103ac906117b4565b80156103f95780601f106103ce576101008083540402835291602001916103f9565b820191906000526020600020905b8154815290600101906020018083116103dc57829003601f168201915b5050505050905090565b60008061040e610903565b905061041b81858561090b565b600191505092915050565b6000600254905090565b60008061043b610903565b905061044885828561091d565b6104538585856109b2565b60019150509392505050565b60006012905090565b824211156104ab576040517f08c379a00000000000000000000000000000000000000000000000000000000081526004016104a290611831565b60405180910390fd5b83856104b79190611880565b3410156104f9576040517f08c379a00000000000000000000000000000000000000000000000000000000081526004016104f09061190e565b60405180910390fd5b60003033878787604051602001610514959493929190611997565b604051602081830303815290604052805190602001209050600061053782610aa6565b9050600660009054906101000a900473ffffffffffffffffffffffffffffffffffffffff1673ffffffffffffffffffffffffffffffffffffffff166105c08286868080601f016020809104026020016040519081016040528093929190818152602001838380828437600081840152601f19601f82011690508083019250505050505050610adc565b73ffffffffffffffffffffffffffffffffffffffff1614610616576040517f08c379a000000000000000000000000000000000000000000000000000000000815260040161060d90611a42565b60405180910390fd5b61063e3361062261045f565b600a61062e9190611b95565b896106399190611880565b610b08565b610646610717565b73ffffffffffffffffffffffffffffffffffffffff166108fc349081150290604051600060405180830381858888f1935050505015801561068b573d6000803e3d6000fd5b5050505050505050565b600660009054906101000a900473ffffffffffffffffffffffffffffffffffffffff1681565b60008060008373ffffffffffffffffffffffffffffffffffffffff1673ffffffffffffffffffffffffffffffffffffffff168152602001908152602001600020549050919050565b61070b610b8a565b6107156000610c11565b565b6000600560009054906101000a900473ffffffffffffffffffffffffffffffffffffffff16905090565b606060048054610750906117b4565b80601f016020809104026020016040519081016040528092919081815260200182805461077c906117b4565b80156107c95780601f1061079e576101008083540402835291602001916107c9565b820191906000526020600020905b8154815290600101906020018083116107ac57829003601f168201915b5050505050905090565b6000806107de610903565b90506107eb8185856109b2565b600191505092915050565b6000600160008473ffffffffffffffffffffffffffffffffffffffff1673ffffffffffffffffffffffffffffffffffffffff16815260200190815260200160002060008373ffffffffffffffffffffffffffffffffffffffff1673ffffffffffffffffffffffffffffffffffffffff16815260200190815260200160002054905092915050565b610885610b8a565b600073ffffffffffffffffffffffffffffffffffffffff168173ffffffffffffffffffffffffffffffffffffffff16036108f75760006040517f1e4fbdf70000000000000000000000000000000000000000000000000000000081526004016108ee91906116fd565b60405180910390fd5b61090081610c11565b50565b600033905090565b6109188383836001610cd7565b505050565b600061092984846107f6565b90507fffffffffffffffffffffffffffffffffffffffffffffffffffffffffffffffff8110156109ac578181101561099c578281836040517ffb8f41b200000000000000000000000000000000000000000000000000000000815260040161099393929190611be0565b60405180910390fd5b6109ab84848484036000610cd7565b5b50505050565b600073ffffffffffffffffffffffffffffffffffffffff168373ffffffffffffffffffffffffffffffffffffffff1603610a245760006040517f96c6fd1e000000000000000000000000000000000000000000000000000000008152600401610a1b91906116fd565b60405180910390fd5b600073ffffffffffffffffffffffffffffffffffffffff168273ffffffffffffffffffffffffffffffffffffffff1603610a965760006040517fec442f05000000000000000000000000000000000000000000000000000000008152600401610a8d91906116fd565b60405180910390fd5b610aa1838383610eae565b505050565b60007f19457468657265756d205369676e6564204d6573736167653a0a33320000000060005281601c52603c6000209050919050565b600080600080610aec86866110d3565b925092509250610afc828261112f565b82935050505092915050565b600073ffffffffffffffffffffffffffffffffffffffff168273ffffffffffffffffffffffffffffffffffffffff1603610b7a5760006040517fec442f05000000000000000000000000000000000000000000000000000000008152600401610b7191906116fd565b60405180910390fd5b610b8660008383610eae565b5050565b610b92610903565b73ffffffffffffffffffffffffffffffffffffffff16610bb0610717565b73ffffffffffffffffffffffffffffffffffffffff1614610c0f57610bd3610903565b6040517f118cdaa7000000000000000000000000000000000000000000000000000000008152600401610c0691906116fd565b60405180910390fd5b565b6000600560009054906101000a900473ffffffffffffffffffffffffffffffffffffffff16905081600560006101000a81548173ffffffffffffffffffffffffffffffffffffffff021916908373ffffffffffffffffffffffffffffffffffffffff1602179055508173ffffffffffffffffffffffffffffffffffffffff168173ffffffffffffffffffffffffffffffffffffffff167f8be0079c531659141344cd1fd0a4f28419497f9722a3daafe3b4186f6b6457e060405160405180910390a35050565b600073ffffffffffffffffffffffffffffffffffffffff168473ffffffffffffffffffffffffffffffffffffffff1603610d495760006040517fe602df05000000000000000000000000000000000000000000000000000000008152600401610d4091906116fd565b60405180910390fd5b600073ffffffffffffffffffffffffffffffffffffffff168373ffffffffffffffffffffffffffffffffffffffff1603610dbb5760006040517f94280d62000000000000000000000000000000000000000000000000000000008152600401610db291906116fd565b60405180910390fd5b81600160008673ffffffffffffffffffffffffffffffffffffffff1673ffffffffffffffffffffffffffffffffffffffff16815260200190815260200160002060008573ffffffffffffffffffffffffffffffffffffffff1673ffffffffffffffffffffffffffffffffffffffff168152602001908152602001600020819055508015610ea8578273ffffffffffffffffffffffffffffffffffffffff168473ffffffffffffffffffffffffffffffffffffffff167f8c5be1e5ebec7d5bd14f71427d1e84f3dd0314c0f7b2291e5b200ac8c7c3b92584604051610e9f919061155c565b60405180910390a35b50505050565b600073ffffffffffffffffffffffffffffffffffffffff168373ffffffffffffffffffffffffffffffffffffffff1603610f00578060026000828254610ef49190611c17565b92505081905550610fd3565b60008060008573ffffffffffffffffffffffffffffffffffffffff1673ffffffffffffffffffffffffffffffffffffffff16815260200190815260200160002054905081811015610f8c578381836040517fe450d38c000000000000000000000000000000000000000000000000000000008152600401610f8393929190611be0565b60405180910390fd5b8181036000808673ffffffffffffffffffffffffffffffffffffffff1673ffffffffffffffffffffffffffffffffffffffff16815260200190815260200160002081905550505b600073ffffffffffffffffffffffffffffffffffffffff168273ffffffffffffffffffffffffffffffffffffffff160361101c5780600260008282540392505081905550611069565b806000808473ffffffffffffffffffffffffffffffffffffffff1673ffffffffffffffffffffffffffffffffffffffff168152602001908152602001600020600082825401925050819055505b8173ffffffffffffffffffffffffffffffffffffffff168373ffffffffffffffffffffffffffffffffffffffff167fddf252ad1be2c89b69c2b068fc378daa952ba7f163c4a11628f55a4df523b3ef836040516110c6919061155c565b60405180910390a3505050565b600080600060418451036111185760008060006020870151925060408701519150606087015160001a905061110a88828585611293565b955095509550505050611128565b60006002855160001b9250925092505b9250925092565b6000600381111561114357611142611c4b565b5b82600381111561115657611155611c4b565b5b031561128f57600160038111156111705761116f611c4b565b5b82600381111561118357611182611c4b565b5b036111ba576040517ff645eedf00000000000000000000000000000000000000000000000000000000815260040160405180910390fd5b600260038111156111ce576111cd611c4b565b5b8260038111156111e1576111e0611c4b565b5b03611226578060001c6040517ffce698f700000000000000000000000000000000000000000000000000000000815260040161121d919061155c565b60405180910390fd5b60038081111561123957611238611c4b565b5b82600381111561124c5761124b611c4b565b5b0361128e57806040517fd78bce0c0000000000000000000000000000000000000000000000000000000081526004016112859190611c93565b60405180910390fd5b5b5050565b60008060007f7fffffffffffffffffffffffffffffff5d576e7357a4501ddfe92f46681b20a08460001c11156112d357600060038592509250925061137d565b6000600188888888604051600081526020016040526040516112f89493929190611cae565b6020604051602081039080840390855afa15801561131a573d6000803e3d6000fd5b505050602060405103519050600073ffffffffffffffffffffffffffffffffffffffff168173ffffffffffffffffffffffffffffffffffffffff160361136e57600060016000801b9350935093505061137d565b8060008060001b935093509350505b9450945094915050565b600081519050919050565b600082825260208201905092915050565b60005b838110156113c15780820151818401526020810190506113a6565b60008484015250505050565b6000601f19601f8301169050919050565b60006113e982611387565b6113f38185611392565b93506114038185602086016113a3565b61140c816113cd565b840191505092915050565b6000602082019050818103600083015261143181846113de565b905092915050565b600080fd5b600080fd5b600073ffffffffffffffffffffffffffffffffffffffff82169050919050565b600061146e82611443565b9050919050565b61147e81611463565b811461148957600080fd5b50565b60008135905061149b81611475565b92915050565b6000819050919050565b6114b4816114a1565b81146114bf57600080fd5b50565b6000813590506114d1816114ab565b92915050565b600080604083850312156114ee576114ed611439565b5b60006114fc8582860161148c565b925050602061150d858286016114c2565b9150509250929050565b60008115159050919050565b61152c81611517565b82525050565b60006020820190506115476000830184611523565b92915050565b611556816114a1565b82525050565b6000602082019050611571600083018461154d565b92915050565b6000806000606084860312156115905761158f611439565b5b600061159e8682870161148c565b93505060206115af8682870161148c565b92505060406115c0868287016114c2565b9150509250925092565b600060ff82169050919050565b6115e0816115ca565b82525050565b60006020820190506115fb60008301846115d7565b92915050565b600080fd5b600080fd5b600080fd5b60008083601f84011261162657611625611601565b5b8235905067ffffffffffffffff81111561164357611642611606565b5b60208301915083600182028301111561165f5761165e61160b565b5b9250929050565b60008060008060006080868803121561168257611681611439565b5b6000611690888289016114c2565b95505060206116a1888289016114c2565b94505060406116b2888289016114c2565b935050606086013567ffffffffffffffff8111156116d3576116d261143e565b5b6116df88828901611610565b92509250509295509295909350565b6116f781611463565b82525050565b600060208201905061171260008301846116ee565b92915050565b60006020828403121561172e5761172d611439565b5b600061173c8482850161148c565b91505092915050565b6000806040838503121561175c5761175b611439565b5b600061176a8582860161148c565b925050602061177b8582860161148c565b9150509250929050565b7f4e487b7100000000000000000000000000000000000000000000000000000000600052602260045260246000fd5b600060028204905060018216806117cc57607f821691505b6020821081036117df576117de611785565b5b50919050565b7f5369676e61747572652065787069726564000000000000000000000000000000600082015250565b600061181b601183611392565b9150611826826117e5565b602082019050919050565b6000602082019050818103600083015261184a8161180e565b9050919050565b7f4e487b7100000000000000000000000000000000000000000000000000000000600052601160045260246000fd5b600061188b826114a1565b9150611896836114a1565b92508282026118a4816114a1565b915082820484148315176118bb576118ba611851565b5b5092915050565b7f496e73756666696369656e74207061796d656e74000000000000000000000000600082015250565b60006118f8601483611392565b9150611903826118c2565b602082019050919050565b60006020820190508181036000830152611927816118eb565b9050919050565b60008160601b9050919050565b60006119468261192e565b9050919050565b60006119588261193b565b9050919050565b61197061196b82611463565b61194d565b82525050565b6000819050919050565b61199161198c826114a1565b611976565b82525050565b60006119a3828861195f565b6014820191506119b3828761195f565b6014820191506119c38286611980565b6020820191506119d38285611980565b6020820191506119e38284611980565b6020820191508190509695505050505050565b7f496e76616c6964207369676e6174757265000000000000000000000000000000600082015250565b6000611a2c601183611392565b9150611a37826119f6565b602082019050919050565b60006020820190508181036000830152611a5b81611a1f565b9050919050565b60008160011c9050919050565b6000808291508390505b6001851115611ab957808604811115611a9557611a94611851565b5b6001851615611aa45780820291505b8081029050611ab285611a62565b9450611a79565b94509492505050565b600082611ad25760019050611b8e565b81611ae05760009050611b8e565b8160018114611af65760028114611b0057611b2f565b6001915050611b8e565b60ff841115611b1257611b11611851565b5b8360020a915084821115611b2957611b28611851565b5b50611b8e565b5060208310610133831016604e8410600b8410161715611b645782820a905083811115611b5f57611b5e611851565b5b611b8e565b611b718484846001611a6f565b92509050818404811115611b8857611b87611851565b5b81810290505b9392505050565b6000611ba0826114a1565b9150611bab836115ca565b9250611bd87fffffffffffffffffffffffffffffffffffffffffffffffffffffffffffffffff8484611ac2565b905092915050565b6000606082019050611bf560008301866116ee565b611c02602083018561154d565b611c0f604083018461154d565b949350505050565b6000611c22826114a1565b9150611c2d836114a1565b9250828201905080821115611c4557611c44611851565b5b92915050565b7f4e487b7100000000000000000000000000000000000000000000000000000000600052602160045260246000fd5b6000819050919050565b611c8d81611c7a565b82525050565b6000602082019050611ca86000830184611c84565b92915050565b6000608082019050611cc36000830187611c84565b611cd060208301866115d7565b611cdd6040830185611c84565b611cea6060830184611c84565b9594505050505056fea264697066735822122084a1e5ae4758d32a73da939c7ba41586c709e973bf6f10ae3923316c7322643d64736f6c634300081c0033a264697066735822122002cfd055ba58941b89203aa2568f112434cd5dffe7c69dbe83a8e8005ca9559164736f6c634300081c0033",
  "linkReferences": {},
  "deployedLinkReferences": {}
}