{
  "_format": "hh-sol-artifact-1",
  "contractName": "CreatorFactory",
  "sourceName": "contracts/CreatorFactory.sol",
  "abi": [
    {
      "inputs": [
        {
          "internalType": "address",
          "name": "_backendSigner",
          "type": "address"
        }
      ],
      "stateMutability": "nonpayable",
      "type": "constructor"
    },
    {
      "anonymous": false,
      "inputs": [
        {
          "indexed": true,
          "internalType": "address",
          "name": "creator",
          "type": "address"
        },
        {
          "indexed": true,
          "internalType": "address",
          "name": "tokenAddress",
          "type": "address"
        },
        {
          "indexed": false,
          "internalType": "string",
          "name": "name",
          "type": "string"
        },
        {
          "indexed": false,
          "internalType": "string",
          "name": "symbol",
          "type": "string"
        }
      ],
      "name": "tokenDeployed",
      "type": "event"
    },
    {
      "inputs": [],
      "name": "MAX_TOKENS_PER_USER",
      "outputs": [
        {
          "internalType": "uint256",
          "name": "",
          "type": "uint256"
        }
      ],
      "stateMutability": "view",
      "type": "function"
    },
    {
      "inputs": [],
      "name": "allTokens",
      "outputs": [
        {
          "internalType": "address[]",
          "name": "",
          "type": "address[]"
        }
      ],
      "stateMutability": "view",
      "type": "function"
    },
    {
      "inputs": [],
      "name": "backendSigner",
      "outputs": [
        {
          "internalType": "address",
          "name": "",
          "type": "address"
        }
      ],
      "stateMutability": "view",
      "type": "function"
    },
    {
      "inputs": [
        {
          "internalType": "string",
          "name": "_name",
          "type": "string"
        },
        {
          "internalType": "string",
          "name": "_symbol",
          "type": "string"
        }
      ],
      "name": "createToken",
      "outputs": [],
      "stateMutability": "nonpayable",
      "type": "function"
    },
    {
      "inputs": [
        {
          "internalType": "uint256",
          "name": "",
          "type": "uint256"
        }
      ],
      "name": "creatorTokens",
      "outputs": [
        {
          "internalType": "address",
          "name": "",
          "type": "address"
        }
      ],
      "stateMutability": "view",
      "type": "function"
    },
    {
      "inputs": [
        {
          "internalType": "address",
          "name": "creator",
          "type": "address"
        }
      ],
      "name": "getTokenByCreator",
      "outputs": [
        {
          "components": [
            {
              "internalType": "address",
              "name": "tokenAddress",
              "type": "address"
            },
            {
              "internalType": "string",
              "name": "name",
              "type": "string"
            },
            {
              "internalType": "string",
              "name": "symbol",
              "type": "string"
            }
          ],
          "internalType": "struct CreatorFactory.TokenData",
          "name": "",
          "type": "tuple"
        }
      ],
      "stateMutability": "view",
      "type": "function"
    },
    {
      "inputs": [
        {
          "internalType": "address",
          "name": "",
          "type": "address"
        }
      ],
      "name": "tokenByCreator",
      "outputs": [
        {
          "internalType": "address",
          "name": "",
          "type": "address"
        }
      ],
      "stateMutability": "view",
      "type": "function"
    },
    {
      "inputs": [
        {
          "internalType": "address",
          "name": "",
          "type": "address"
        }
      ],
      "name": "tokenMetadata",
      "outputs": [
        {
          "internalType": "address",
          "name": "tokenAddress",
          "type": "address"
        },
        {
          "internalType": "string",
          "name": "name",
          "type": "string"
        },
        {
          "internalType": "string",
          "name": "symbol",
          "type": "string"
        }
      ],
      "stateMutability": "view",
      "type": "function"
    }
  ],
  "bytecode": "0x608060405234801561001057600080fd5b50604051613e26380380613e26833981810160405281019061003291906100dc565b80600160006101000a81548173ffffffffffffffffffffffffffffffffffffffff021916908373ffffffffffffffffffffffffffffffffffffffff16021790555050610109565b600080fd5b600073ffffffffffffffffffffffffffffffffffffffff82169050919050565b60006100a98261007e565b9050919050565b6100b98161009e565b81146100c457600080fd5b50565b6000815190506100d6816100b0565b92915050565b6000602082840312156100f2576100f1610079565b5b6000610100848285016100c7565b91505092915050565b613d0e806101186000396000f3fe608060405234801561001057600080fd5b50600436106100885760003560e01c806369c5dfd81161005b57806369c5dfd8146101275780636fecdf24146101455780636ff97f1d14610177578063ce901d8a1461019557610088565b8063049b34091461008d5780632f09b456146100bd5780632f2f2d56146100ed57806365d65e8614610109575b600080fd5b6100a760048036038101906100a29190610cdc565b6101c5565b6040516100b49190610dff565b60405180910390f35b6100d760048036038101906100d29190610cdc565b61046c565b6040516100e49190610e30565b60405180910390f35b61010760048036038101906101029190610f80565b61049f565b005b6101116109d4565b60405161011e9190610e30565b60405180910390f35b61012f6109fa565b60405161013c9190611011565b60405180910390f35b61015f600480360381019061015a9190610cdc565b6109ff565b60405161016e93929190611076565b60405180910390f35b61017f610b59565b60405161018c919061116a565b60405180910390f35b6101af60048036038101906101aa91906111b8565b610be7565b6040516101bc9190610e30565b60405180910390f35b6101cd610c26565b6000600260008473ffffffffffffffffffffffffffffffffffffffff1673ffffffffffffffffffffffffffffffffffffffff16815260200190815260200160002060009054906101000a900473ffffffffffffffffffffffffffffffffffffffff169050600073ffffffffffffffffffffffffffffffffffffffff168173ffffffffffffffffffffffffffffffffffffffff16036102a0576040517f08c379a000000000000000000000000000000000000000000000000000000000815260040161029790611231565b60405180910390fd5b600360008273ffffffffffffffffffffffffffffffffffffffff1673ffffffffffffffffffffffffffffffffffffffff1681526020019081526020016000206040518060600160405290816000820160009054906101000a900473ffffffffffffffffffffffffffffffffffffffff1673ffffffffffffffffffffffffffffffffffffffff1673ffffffffffffffffffffffffffffffffffffffff16815260200160018201805461035090611280565b80601f016020809104026020016040519081016040528092919081815260200182805461037c90611280565b80156103c95780601f1061039e576101008083540402835291602001916103c9565b820191906000526020600020905b8154815290600101906020018083116103ac57829003601f168201915b505050505081526020016002820180546103e290611280565b80601f016020809104026020016040519081016040528092919081815260200182805461040e90611280565b801561045b5780601f106104305761010080835404028352916020019161045b565b820191906000526020600020905b81548152906001019060200180831161043e57829003601f168201915b505050505081525050915050919050565b60026020528060005260406000206000915054906101000a900473ffffffffffffffffffffffffffffffffffffffff1681565b60008251116104e3576040517f08c379a00000000000000000000000000000000000000000000000000000000081526004016104da906112fd565b60405180910390fd5b6000815111610527576040517f08c379a000000000000000000000000000000000000000000000000000000000815260040161051e90611369565b60405180910390fd5b600073ffffffffffffffffffffffffffffffffffffffff16600260003373ffffffffffffffffffffffffffffffffffffffff1673ffffffffffffffffffffffffffffffffffffffff16815260200190815260200160002060009054906101000a900473ffffffffffffffffffffffffffffffffffffffff1673ffffffffffffffffffffffffffffffffffffffff16146105f5576040517f08c379a00000000000000000000000000000000000000000000000000000000081526004016105ec906113d5565b60405180910390fd5b6004826040516106059190611431565b908152602001604051809103902060009054906101000a900460ff1615610661576040517f08c379a000000000000000000000000000000000000000000000000000000000815260040161065890611494565b60405180910390fd5b6005816040516106719190611431565b908152602001604051809103902060009054906101000a900460ff16156106cd576040517f08c379a00000000000000000000000000000000000000000000000000000000081526004016106c490611500565b60405180910390fd5b600033600160009054906101000a900473ffffffffffffffffffffffffffffffffffffffff16848460405161070190610c5d565b61070e9493929190611520565b604051809103906000f08015801561072a573d6000803e3d6000fd5b509050600081905060016004856040516107449190611431565b908152602001604051809103902060006101000a81548160ff021916908315150217905550600160058460405161077b9190611431565b908152602001604051809103902060006101000a81548160ff0219169083151502179055506000819080600181540180825580915050600190039060005260206000200160009091909190916101000a81548173ffffffffffffffffffffffffffffffffffffffff021916908373ffffffffffffffffffffffffffffffffffffffff16021790555080600260003373ffffffffffffffffffffffffffffffffffffffff1673ffffffffffffffffffffffffffffffffffffffff16815260200190815260200160002060006101000a81548173ffffffffffffffffffffffffffffffffffffffff021916908373ffffffffffffffffffffffffffffffffffffffff16021790555060405180606001604052808273ffffffffffffffffffffffffffffffffffffffff16815260200185815260200184815250600360008373ffffffffffffffffffffffffffffffffffffffff1673ffffffffffffffffffffffffffffffffffffffff16815260200190815260200160002060008201518160000160006101000a81548173ffffffffffffffffffffffffffffffffffffffff021916908373ffffffffffffffffffffffffffffffffffffffff160217905550602082015181600101908161094d919061171f565b506040820151816002019081610963919061171f565b509050508073ffffffffffffffffffffffffffffffffffffffff163373ffffffffffffffffffffffffffffffffffffffff167f016fedc894935416c32f1226c2d25b962b965defb82a3140075d61d2fd295f9686866040516109c69291906117f1565b60405180910390a350505050565b600160009054906101000a900473ffffffffffffffffffffffffffffffffffffffff1681565b600181565b60036020528060005260406000206000915090508060000160009054906101000a900473ffffffffffffffffffffffffffffffffffffffff1690806001018054610a4890611280565b80601f0160208091040260200160405190810160405280929190818152602001828054610a7490611280565b8015610ac15780601f10610a9657610100808354040283529160200191610ac1565b820191906000526020600020905b815481529060010190602001808311610aa457829003601f168201915b505050505090806002018054610ad690611280565b80601f0160208091040260200160405190810160405280929190818152602001828054610b0290611280565b8015610b4f5780601f10610b2457610100808354040283529160200191610b4f565b820191906000526020600020905b815481529060010190602001808311610b3257829003601f168201915b5050505050905083565b60606000805480602002602001604051908101604052809291908181526020018280548015610bdd57602002820191906000526020600020905b8160009054906101000a900473ffffffffffffffffffffffffffffffffffffffff1673ffffffffffffffffffffffffffffffffffffffff1681526020019060010190808311610b93575b5050505050905090565b60008181548110610bf757600080fd5b906000526020600020016000915054906101000a900473ffffffffffffffffffffffffffffffffffffffff1681565b6040518060600160405280600073ffffffffffffffffffffffffffffffffffffffff16815260200160608152602001606081525090565b6124b08061182983390190565b6000604051905090565b600080fd5b600080fd5b600073ffffffffffffffffffffffffffffffffffffffff82169050919050565b6000610ca982610c7e565b9050919050565b610cb981610c9e565b8114610cc457600080fd5b50565b600081359050610cd681610cb0565b92915050565b600060208284031215610cf257610cf1610c74565b5b6000610d0084828501610cc7565b91505092915050565b610d1281610c9e565b82525050565b600081519050919050565b600082825260208201905092915050565b60005b83811015610d52578082015181840152602081019050610d37565b60008484015250505050565b6000601f19601f8301169050919050565b6000610d7a82610d18565b610d848185610d23565b9350610d94818560208601610d34565b610d9d81610d5e565b840191505092915050565b6000606083016000830151610dc06000860182610d09565b5060208301518482036020860152610dd88282610d6f565b91505060408301518482036040860152610df28282610d6f565b9150508091505092915050565b60006020820190508181036000830152610e198184610da8565b905092915050565b610e2a81610c9e565b82525050565b6000602082019050610e456000830184610e21565b92915050565b600080fd5b600080fd5b7f4e487b7100000000000000000000000000000000000000000000000000000000600052604160045260246000fd5b610e8d82610d5e565b810181811067ffffffffffffffff82111715610eac57610eab610e55565b5b80604052505050565b6000610ebf610c6a565b9050610ecb8282610e84565b919050565b600067ffffffffffffffff821115610eeb57610eea610e55565b5b610ef482610d5e565b9050602081019050919050565b82818337600083830152505050565b6000610f23610f1e84610ed0565b610eb5565b905082815260208101848484011115610f3f57610f3e610e50565b5b610f4a848285610f01565b509392505050565b600082601f830112610f6757610f66610e4b565b5b8135610f77848260208601610f10565b91505092915050565b60008060408385031215610f9757610f96610c74565b5b600083013567ffffffffffffffff811115610fb557610fb4610c79565b5b610fc185828601610f52565b925050602083013567ffffffffffffffff811115610fe257610fe1610c79565b5b610fee85828601610f52565b9150509250929050565b6000819050919050565b61100b81610ff8565b82525050565b60006020820190506110266000830184611002565b92915050565b600082825260208201905092915050565b600061104882610d18565b611052818561102c565b9350611062818560208601610d34565b61106b81610d5e565b840191505092915050565b600060608201905061108b6000830186610e21565b818103602083015261109d818561103d565b905081810360408301526110b1818461103d565b9050949350505050565b600081519050919050565b600082825260208201905092915050565b6000819050602082019050919050565b60006110f38383610d09565b60208301905092915050565b6000602082019050919050565b6000611117826110bb565b61112181856110c6565b935061112c836110d7565b8060005b8381101561115d57815161114488826110e7565b975061114f836110ff565b925050600181019050611130565b5085935050505092915050565b60006020820190508181036000830152611184818461110c565b905092915050565b61119581610ff8565b81146111a057600080fd5b50565b6000813590506111b28161118c565b92915050565b6000602082840312156111ce576111cd610c74565b5b60006111dc848285016111a3565b91505092915050565b7f4e6f20746f6b656e20666f756e6420666f722063726561746f72000000000000600082015250565b600061121b601a8361102c565b9150611226826111e5565b602082019050919050565b6000602082019050818103600083015261124a8161120e565b9050919050565b7f4e487b7100000000000000000000000000000000000000000000000000000000600052602260045260246000fd5b6000600282049050600182168061129857607f821691505b6020821081036112ab576112aa611251565b5b50919050565b7f546f6b656e206e616d652063616e6e6f7420626520656d707479000000000000600082015250565b60006112e7601a8361102c565b91506112f2826112b1565b602082019050919050565b60006020820190508181036000830152611316816112da565b9050919050565b7f546f6b656e2073796d626f6c2063616e6e6f7420626520656d70747900000000600082015250565b6000611353601c8361102c565b915061135e8261131d565b602082019050919050565b6000602082019050818103600083015261138281611346565b9050919050565b7f546f6b656e20616c726561647920637265617465640000000000000000000000600082015250565b60006113bf60158361102c565b91506113ca82611389565b602082019050919050565b600060208201905081810360008301526113ee816113b2565b9050919050565b600081905092915050565b600061140b82610d18565b61141581856113f5565b9350611425818560208601610d34565b80840191505092915050565b600061143d8284611400565b915081905092915050565b7f546f6b656e206e616d6520616c72656164792075736564000000000000000000600082015250565b600061147e60178361102c565b915061148982611448565b602082019050919050565b600060208201905081810360008301526114ad81611471565b9050919050565b7f546f6b656e2073796d626f6c20616c7265616479207573656400000000000000600082015250565b60006114ea60198361102c565b91506114f5826114b4565b602082019050919050565b60006020820190508181036000830152611519816114dd565b9050919050565b60006080820190506115356000830187610e21565b6115426020830186610e21565b8181036040830152611554818561103d565b90508181036060830152611568818461103d565b905095945050505050565b60008190508160005260206000209050919050565b60006020601f8301049050919050565b600082821b905092915050565b6000600883026115d57fffffffffffffffffffffffffffffffffffffffffffffffffffffffffffffffff82611598565b6115df8683611598565b95508019841693508086168417925050509392505050565b6000819050919050565b600061161c61161761161284610ff8565b6115f7565b610ff8565b9050919050565b6000819050919050565b61163683611601565b61164a61164282611623565b8484546115a5565b825550505050565b600090565b61165f611652565b61166a81848461162d565b505050565b5b8181101561168e57611683600082611657565b600181019050611670565b5050565b601f8211156116d3576116a481611573565b6116ad84611588565b810160208510156116bc578190505b6116d06116c885611588565b83018261166f565b50505b505050565b600082821c905092915050565b60006116f6600019846008026116d8565b1980831691505092915050565b600061170f83836116e5565b9150826002028217905092915050565b61172882610d18565b67ffffffffffffffff81111561174157611740610e55565b5b61174b8254611280565b611756828285611692565b600060209050601f8311600181146117895760008415611777578287015190505b6117818582611703565b8655506117e9565b601f19841661179786611573565b60005b828110156117bf5784890151825560018201915060208501945060208101905061179a565b868310156117dc57848901516117d8601f8916826116e5565b8355505b6001600288020188555050505b505050505050565b6000604082019050818103600083015261180b818561103d565b9050818103602083015261181f818461103d565b9050939250505056fe608060405234801561001057600080fd5b506040516124b03803806124b0833981810160405281019061003291906103bc565b8382828160039081610044919061067c565b508060049081610054919061067c565b505050600073ffffffffffffffffffffffffffffffffffffffff168173ffffffffffffffffffffffffffffffffffffffff16036100c95760006040517f1e4fbdf70000000000000000000000000000000000000000000000000000000081526004016100c0919061075d565b60405180910390fd5b6100d88161012360201b60201c565b5082600660006101000a81548173ffffffffffffffffffffffffffffffffffffffff021916908373ffffffffffffffffffffffffffffffffffffffff16021790555050505050610778565b6000600560009054906101000a900473ffffffffffffffffffffffffffffffffffffffff16905081600560006101000a81548173ffffffffffffffffffffffffffffffffffffffff021916908373ffffffffffffffffffffffffffffffffffffffff1602179055508173ffffffffffffffffffffffffffffffffffffffff168173ffffffffffffffffffffffffffffffffffffffff167f8be0079c531659141344cd1fd0a4f28419497f9722a3daafe3b4186f6b6457e060405160405180910390a35050565b6000604051905090565b600080fd5b600080fd5b600073ffffffffffffffffffffffffffffffffffffffff82169050919050565b6000610228826101fd565b9050919050565b6102388161021d565b811461024357600080fd5b50565b6000815190506102558161022f565b92915050565b600080fd5b600080fd5b6000601f19601f8301169050919050565b7f4e487b7100000000000000000000000000000000000000000000000000000000600052604160045260246000fd5b6102ae82610265565b810181811067ffffffffffffffff821117156102cd576102cc610276565b5b80604052505050565b60006102e06101e9565b90506102ec82826102a5565b919050565b600067ffffffffffffffff82111561030c5761030b610276565b5b61031582610265565b9050602081019050919050565b60005b83811015610340578082015181840152602081019050610325565b60008484015250505050565b600061035f61035a846102f1565b6102d6565b90508281526020810184848401111561037b5761037a610260565b5b610386848285610322565b509392505050565b600082601f8301126103a3576103a261025b565b5b81516103b384826020860161034c565b91505092915050565b600080600080608085870312156103d6576103d56101f3565b5b60006103e487828801610246565b94505060206103f587828801610246565b935050604085015167ffffffffffffffff811115610416576104156101f8565b5b6104228782880161038e565b925050606085015167ffffffffffffffff811115610443576104426101f8565b5b61044f8782880161038e565b91505092959194509250565b600081519050919050565b7f4e487b7100000000000000000000000000000000000000000000000000000000600052602260045260246000fd5b600060028204905060018216806104ad57607f821691505b6020821081036104c0576104bf610466565b5b50919050565b60008190508160005260206000209050919050565b60006020601f8301049050919050565b600082821b905092915050565b6000600883026105287fffffffffffffffffffffffffffffffffffffffffffffffffffffffffffffffff826104eb565b61053286836104eb565b95508019841693508086168417925050509392505050565b6000819050919050565b6000819050919050565b600061057961057461056f8461054a565b610554565b61054a565b9050919050565b6000819050919050565b6105938361055e565b6105a761059f82610580565b8484546104f8565b825550505050565b600090565b6105bc6105af565b6105c781848461058a565b505050565b5b818110156105eb576105e06000826105b4565b6001810190506105cd565b5050565b601f82111561063057610601816104c6565b61060a846104db565b81016020851015610619578190505b61062d610625856104db565b8301826105cc565b50505b505050565b600082821c905092915050565b600061065360001984600802610635565b1980831691505092915050565b600061066c8383610642565b9150826002028217905092915050565b6106858261045b565b67ffffffffffffffff81111561069e5761069d610276565b5b6106a88254610495565b6106b38282856105ef565b600060209050601f8311600181146106e657600084156106d4578287015190505b6106de8582610660565b865550610746565b601f1984166106f4866104c6565b60005b8281101561071c578489015182556001820191506020850194506020810190506106f7565b868310156107395784890151610735601f891682610642565b8355505b6001600288020188555050505b505050505050565b6107578161021d565b82525050565b6000602082019050610772600083018461074e565b92915050565b611d29806107876000396000f3fe6080604052600436106100dd5760003560e01c806370a082311161007f57806395d89b411161005957806395d89b41146102a3578063a9059cbb146102ce578063dd62ed3e1461030b578063f2fde38b14610348576100dd565b806370a0823114610224578063715018a6146102615780638da5cb5b14610278576100dd565b806323b872dd116100bb57806323b872dd14610175578063313ce567146101b257806352200dfc146101dd57806365d65e86146101f9576100dd565b806306fdde03146100e2578063095ea7b31461010d57806318160ddd1461014a575b600080fd5b3480156100ee57600080fd5b506100f7610371565b6040516101049190611417565b60405180910390f35b34801561011957600080fd5b50610134600480360381019061012f91906114d7565b610403565b6040516101419190611532565b60405180910390f35b34801561015657600080fd5b5061015f610426565b60405161016c919061155c565b60405180910390f35b34801561018157600080fd5b5061019c60048036038101906101979190611577565b610430565b6040516101a99190611532565b60405180910390f35b3480156101be57600080fd5b506101c761045f565b6040516101d491906115e6565b60405180910390f35b6101f760048036038101906101f29190611666565b610468565b005b34801561020557600080fd5b5061020e610695565b60405161021b91906116fd565b60405180910390f35b34801561023057600080fd5b5061024b60048036038101906102469190611718565b6106bb565b604051610258919061155c565b60405180910390f35b34801561026d57600080fd5b50610276610703565b005b34801561028457600080fd5b5061028d610717565b60405161029a91906116fd565b60405180910390f35b3480156102af57600080fd5b506102b8610741565b6040516102c59190611417565b60405180910390f35b3480156102da57600080fd5b506102f560048036038101906102f091906114d7565b6107d3565b6040516103029190611532565b60405180910390f35b34801561031757600080fd5b50610332600480360381019061032d9190611745565b6107f6565b60405161033f919061155c565b60405180910390f35b34801561035457600080fd5b5061036f600480360381019061036a9190611718565b61087d565b005b606060038054610380906117b4565b80601f01602080910402602001604051908101604052809291908181526020018280546103ac906117b4565b80156103f95780601f106103ce576101008083540402835291602001916103f9565b820191906000526020600020905b8154815290600101906020018083116103dc57829003601f168201915b5050505050905090565b60008061040e610903565b905061041b81858561090b565b600191505092915050565b6000600254905090565b60008061043b610903565b905061044885828561091d565b6104538585856109b2565b60019150509392505050565b60006012905090565b824211156104ab576040517f08c379a00000000000000000000000000000000000000000000000000000000081526004016104a290611831565b60405180910390fd5b83856104b79190611880565b3410156104f9576040517f08c379a00000000000000000000000000000000000000000000000000000000081526004016104f09061190e565b60405180910390fd5b60003033878787604051602001610514959493929190611997565b604051602081830303815290604052805190602001209050600061053782610aa6565b9050600660009054906101000a900473ffffffffffffffffffffffffffffffffffffffff1673ffffffffffffffffffffffffffffffffffffffff166105c08286868080601f016020809104026020016040519081016040528093929190818152602001838380828437600081840152601f19601f82011690508083019250505050505050610adc565b73ffffffffffffffffffffffffffffffffffffffff1614610616576040517f08c379a000000000000000000000000000000000000000000000000000000000815260040161060d90611a42565b60405180910390fd5b61063e3361062261045f565b600a61062e9190611b95565b896106399190611880565b610b08565b610646610717565b73ffffffffffffffffffffffffffffffffffffffff166108fc349081150290604051600060405180830381858888f1935050505015801561068b573d6000803e3d6000fd5b5050505050505050565b600660009054906101000a900473ffffffffffffffffffffffffffffffffffffffff1681565b60008060008373ffffffffffffffffffffffffffffffffffffffff1673ffffffffffffffffffffffffffffffffffffffff168152602001908152602001600020549050919050565b61070b610b8a565b6107156000610c11565b565b6000600560009054906101000a900473ffffffffffffffffffffffffffffffffffffffff16905090565b606060048054610750906117b4565b80601f016020809104026020016040519081016040528092919081815260200182805461077c906117b4565b80156107c95780601f1061079e576101008083540402835291602001916107c9565b820191906000526020600020905b8154815290600101906020018083116107ac57829003601f168201915b5050505050905090565b6000806107de610903565b90506107eb8185856109b2565b600191505092915050565b6000600160008473ffffffffffffffffffffffffffffffffffffffff1673ffffffffffffffffffffffffffffffffffffffff16815260200190815260200160002060008373ffffffffffffffffffffffffffffffffffffffff1673ffffffffffffffffffffffffffffffffffffffff16815260200190815260200160002054905092915050565b610885610b8a565b600073ffffffffffffffffffffffffffffffffffffffff168173ffffffffffffffffffffffffffffffffffffffff16036108f75760006040517f1e4fbdf70000000000000000000000000000000000000000000000000000000081526004016108ee91906116fd565b60405180910390fd5b61090081610c11565b50565b600033905090565b6109188383836001610cd7565b505050565b600061092984846107f6565b90507fffffffffffffffffffffffffffffffffffffffffffffffffffffffffffffffff8110156109ac578181101561099c578281836040517ffb8f41b200000000000000000000000000000000000000000000000000000000815260040161099393929190611be0565b60405180910390fd5b6109ab84848484036000610cd7565b5b50505050565b600073ffffffffffffffffffffffffffffffffffffffff168373ffffffffffffffffffffffffffffffffffffffff1603610a245760006040517f96c6fd1e000000000000000000000000000000000000000000000000000000008152600401610a1b91906116fd565b60405180910390fd5b600073ffffffffffffffffffffffffffffffffffffffff168273ffffffffffffffffffffffffffffffffffffffff1603610a965760006040517fec442f05000000000000000000000000000000000000000000000000000000008152600401610a8d91906116fd565b60405180910390fd5b610aa1838383610eae565b505050565b60007f19457468657265756d205369676e6564204d6573736167653a0a33320000000060005281601c52603c6000209050919050565b600080600080610aec86866110d3565b925092509250610afc828261112f565b82935050505092915050565b600073ffffffffffffffffffffffffffffffffffffffff168273ffffffffffffffffffffffffffffffffffffffff1603610b7a5760006040517fec442f05000000000000000000000000000000000000000000000000000000008152600401610b7191906116fd565b60405180910390fd5b610b8660008383610eae565b5050565b610b92610903565b73ffffffffffffffffffffffffffffffffffffffff16610bb0610717565b73ffffffffffffffffffffffffffffffffffffffff1614610c0f57610bd3610903565b6040517f118cdaa7000000000000000000000000000000000000000000000000000000008152600401610c0691906116fd565b60405180910390fd5b565b6000600560009054906101000a900473ffffffffffffffffffffffffffffffffffffffff16905081600560006101000a81548173ffffffffffffffffffffffffffffffffffffffff021916908373ffffffffffffffffffffffffffffffffffffffff1602179055508173ffffffffffffffffffffffffffffffffffffffff168173ffffffffffffffffffffffffffffffffffffffff167f8be0079c531659141344cd1fd0a4f28419497f9722a3daafe3b4186f6b6457e060405160405180910390a35050565b600073ffffffffffffffffffffffffffffffffffffffff168473ffffffffffffffffffffffffffffffffffffffff1603610d495760006040517fe602df05000000000000000000000000000000000000000000000000000000008152600401610d4091906116fd565b60405180910390fd5b600073ffffffffffffffffffffffffffffffffffffffff168373ffffffffffffffffffffffffffffffffffffffff1603610dbb5760006040517f94280d62000000000000000000000000000000000000000000000000000000008152600401610db291906116fd565b60405180910390fd5b81600160008673ffffffffffffffffffffffffffffffffffffffff1673ffffffffffffffffffffffffffffffffffffffff16815260200190815260200160002060008573ffffffffffffffffffffffffffffffffffffffff1673ffffffffffffffffffffffffffffffffffffffff168152602001908152602001600020819055508015610ea8578273ffffffffffffffffffffffffffffffffffffffff168473ffffffffffffffffffffffffffffffffffffffff167f8c5be1e5ebec7d5bd14f71427d1e84f3dd0314c0f7b2291e5b200ac8c7c3b92584604051610e9f919061155c565b60405180910390a35b50505050565b600073ffffffffffffffffffffffffffffffffffffffff168373ffffffffffffffffffffffffffffffffffffffff1603610f00578060026000828254610ef49190611c17565b92505081905550610fd3565b60008060008573ffffffffffffffffffffffffffffffffffffffff1673ffffffffffffffffffffffffffffffffffffffff16815260200190815260200160002054905081811015610f8c578381836040517fe450d38c000000000000000000000000000000000000000000000000000000008152600401610f8393929190611be0565b60405180910390fd5b8181036000808673ffffffffffffffffffffffffffffffffffffffff1673ffffffffffffffffffffffffffffffffffffffff16815260200190815260200160002081905550505b600073ffffffffffffffffffffffffffffffffffffffff168273ffffffffffffffffffffffffffffffffffffffff160361101c5780600260008282540392505081905550611069565b806000808473ffffffffffffffffffffffffffffffffffffffff1673ffffffffffffffffffffffffffffffffffffffff168152602001908152602001600020600082825401925050819055505b8173ffffffffffffffffffffffffffffffffffffffff168373ffffffffffffffffffffffffffffffffffffffff167fddf252ad1be2c89b69c2b068fc378daa952ba7f163c4a11628f55a4df523b3ef836040516110c6919061155c565b60405180910390a3505050565b600080600060418451036111185760008060006020870151925060408701519150606087015160001a905061110a88828585611293565b955095509550505050611128565b60006002855160001b9250925092505b9250925092565b6000600381111561114357611142611c4b565b5b82600381111561115657611155611c4b565b5b031561128f57600160038111156111705761116f611c4b565b5b82600381111561118357611182611c4b565b5b036111ba576040517ff645eedf00000000000000000000000000000000000000000000000000000000815260040160405180910390fd5b600260038111156111ce576111cd611c4b565b5b8260038111156111e1576111e0611c4b565b5b03611226578060001c6040517ffce698f700000000000000000000000000000000000000000000000000000000815260040161121d919061155c565b60405180910390fd5b60038081111561123957611238611c4b565b5b82600381111561124c5761124b611c4b565b5b0361128e57806040517fd78bce0c0000000000000000000000000000000000000000000000000000000081526004016112859190611c93565b60405180910390fd5b5b5050565b60008060007f7fffffffffffffffffffffffffffffff5d576e7357a4501ddfe92f46681b20a08460001c11156112d357600060038592509250925061137d565b6000600188888888604051600081526020016040526040516112f89493929190611cae565b6020604051602081039080840390855afa15801561131a573d6000803e3d6000fd5b505050602060405103519050600073ffffffffffffffffffffffffffffffffffffffff168173ffffffffffffffffffffffffffffffffffffffff160361136e57600060016000801b9350935093505061137d565b8060008060001b935093509350505b9450945094915050565b600081519050919050565b600082825260208201905092915050565b60005b838110156113c15780820151818401526020810190506113a6565b60008484015250505050565b6000601f19601f8301169050919050565b60006113e982611387565b6113f38185611392565b93506114038185602086016113a3565b61140c816113cd565b840191505092915050565b6000602082019050818103600083015261143181846113de565b905092915050565b600080fd5b600080fd5b600073ffffffffffffffffffffffffffffffffffffffff82169050919050565b600061146e82611443565b9050919050565b61147e81611463565b811461148957600080fd5b50565b60008135905061149b81611475565b92915050565b6000819050919050565b6114b4816114a1565b81146114bf57600080fd5b50565b6000813590506114d1816114ab565b92915050565b600080604083850312156114ee576114ed611439565b5b60006114fc8582860161148c565b925050602061150d858286016114c2565b9150509250929050565b60008115159050919050565b61152c81611517565b82525050565b60006020820190506115476000830184611523565b92915050565b611556816114a1565b82525050565b6000602082019050611571600083018461154d565b92915050565b6000806000606084860312156115905761158f611439565b5b600061159e8682870161148c565b93505060206115af8682870161148c565b92505060406115c0868287016114c2565b9150509250925092565b600060ff82169050919050565b6115e0816115ca565b82525050565b60006020820190506115fb60008301846115d7565b92915050565b600080fd5b600080fd5b600080fd5b60008083601f84011261162657611625611601565b5b8235905067ffffffffffffffff81111561164357611642611606565b5b60208301915083600182028301111561165f5761165e61160b565b5b9250929050565b60008060008060006080868803121561168257611681611439565b5b6000611690888289016114c2565b95505060206116a1888289016114c2565b94505060406116b2888289016114c2565b935050606086013567ffffffffffffffff8111156116d3576116d261143e565b5b6116df88828901611610565b92509250509295509295909350565b6116f781611463565b82525050565b600060208201905061171260008301846116ee565b92915050565b60006020828403121561172e5761172d611439565b5b600061173c8482850161148c565b91505092915050565b6000806040838503121561175c5761175b611439565b5b600061176a8582860161148c565b925050602061177b8582860161148c565b9150509250929050565b7f4e487b7100000000000000000000000000000000000000000000000000000000600052602260045260246000fd5b600060028204905060018216806117cc57607f821691505b6020821081036117df576117de611785565b5b50919050565b7f5369676e61747572652065787069726564000000000000000000000000000000600082015250565b600061181b601183611392565b9150611826826117e5565b602082019050919050565b6000602082019050818103600083015261184a8161180e565b9050919050565b7f4e487b7100000000000000000000000000000000000000000000000000000000600052601160045260246000fd5b600061188b826114a1565b9150611896836114a1565b92508282026118a4816114a1565b915082820484148315176118bb576118ba611851565b5b5092915050565b7f496e73756666696369656e74207061796d656e74000000000000000000000000600082015250565b60006118f8601483611392565b9150611903826118c2565b602082019050919050565b60006020820190508181036000830152611927816118eb565b9050919050565b60008160601b9050919050565b60006119468261192e565b9050919050565b60006119588261193b565b9050919050565b61197061196b82611463565b61194d565b82525050565b6000819050919050565b61199161198c826114a1565b611976565b82525050565b60006119a3828861195f565b6014820191506119b3828761195f565b6014820191506119c38286611980565b6020820191506119d38285611980565b6020820191506119e38284611980565b6020820191508190509695505050505050565b7f496e76616c6964207369676e6174757265000000000000000000000000000000600082015250565b6000611a2c601183611392565b9150611a37826119f6565b602082019050919050565b60006020820190508181036000830152611a5b81611a1f565b9050919050565b60008160011c9050919050565b6000808291508390505b6001851115611ab957808604811115611a9557611a94611851565b5b6001851615611aa45780820291505b8081029050611ab285611a62565b9450611a79565b94509492505050565b600082611ad25760019050611b8e565b81611ae05760009050611b8e565b8160018114611af65760028114611b0057611b2f565b6001915050611b8e565b60ff841115611b1257611b11611851565b5b8360020a915084821115611b2957611b28611851565b5b50611b8e565b5060208310610133831016604e8410600b8410161715611b645782820a905083811115611b5f57611b5e611851565b5b611b8e565b611b718484846001611a6f565b92509050818404811115611b8857611b87611851565b5b81810290505b9392505050565b6000611ba0826114a1565b9150611bab836115ca565b9250611bd87fffffffffffffffffffffffffffffffffffffffffffffffffffffffffffffffff8484611ac2565b905092915050565b6000606082019050611bf560008301866116ee565b611c02602083018561154d565b611c0f604083018461154d565b949350505050565b6000611c22826114a1565b9150611c2d836114a1565b9250828201905080821115611c4557611c44611851565b5b92915050565b7f4e487b7100000000000000000000000000000000000000000000000000000000600052602160045260246000fd5b6000819050919050565b611c8d81611c7a565b82525050565b6000602082019050611ca86000830184611c84565b92915050565b6000608082019050611cc36000830187611c84565b611cd060208301866115d7565b611cdd6040830185611c84565b611cea6060830184611c84565b9594505050505056fea264697066735822122084a1e5ae4758d32a73da939c7ba41586c709e973bf6f10ae3923316c7322643d64736f6c634300081c0033a2646970667358221220b0deeda3e7c9610a0c3a4e0364432e62f661d15bc8617f87b0c371696dee89ed64736f6c634300081c0033",
  "linkReferences": {},
  "deployedLinkReferences": {}
}